{
  "_format": "hh-sol-artifact-1",
  "contractName": "TrainingRegistry",
  "sourceName": "contracts/TrainingRegistry.sol",
  "abi": [
    {
      "anonymous": false,
      "inputs": [
        {
          "indexed": true,
          "internalType": "address",
          "name": "client",
          "type": "address"
        },
        {
          "indexed": true,
          "internalType": "bytes32",
          "name": "root",
          "type": "bytes32"
        },
        {
          "indexed": false,
          "internalType": "uint256",
          "name": "timestamp",
          "type": "uint256"
        }
      ],
      "name": "DatasetCommitted",
      "type": "event"
    },
    {
      "inputs": [
        {
          "internalType": "bytes32",
          "name": "root",
          "type": "bytes32"
        }
      ],
      "name": "commitRoot",
      "outputs": [],
      "stateMutability": "nonpayable",
      "type": "function"
    },
    {
      "inputs": [
        {
          "internalType": "address",
          "name": "client",
          "type": "address"
        }
      ],
      "name": "getRoots",
      "outputs": [
        {
          "internalType": "bytes32[]",
          "name": "",
          "type": "bytes32[]"
        }
      ],
      "stateMutability": "view",
      "type": "function"
    },
    {
      "inputs": [
        {
          "internalType": "address",
          "name": "client",
          "type": "address"
        },
        {
          "internalType": "bytes32",
          "name": "root",
          "type": "bytes32"
        }
      ],
      "name": "isCommitted",
      "outputs": [
        {
          "internalType": "bool",
          "name": "",
          "type": "bool"
        }
      ],
      "stateMutability": "view",
      "type": "function"
    }
  ],
  "bytecode": "0x608060405234801561001057600080fd5b50610784806100206000396000f3fe608060405234801561001057600080fd5b50600436106100415760003560e01c80639a96994014610046578063a82e348214610076578063d14d9325146100a6575b600080fd5b610060600480360381019061005b919061045b565b6100c2565b60405161006d91906104b6565b60405180910390f35b610090600480360381019061008b91906104d1565b61012a565b60405161009d91906105bc565b60405180910390f35b6100c060048036038101906100bb91906105de565b6101c0565b005b6000600160008473ffffffffffffffffffffffffffffffffffffffff1673ffffffffffffffffffffffffffffffffffffffff168152602001908152602001600020600083815260200190815260200160002060009054906101000a900460ff16905092915050565b60606000808373ffffffffffffffffffffffffffffffffffffffff1673ffffffffffffffffffffffffffffffffffffffff1681526020019081526020016000208054806020026020016040519081016040528092919081815260200182805480156101b457602002820191906000526020600020905b8154815260200190600101908083116101a0575b50505050509050919050565b6000801b8103610205576040517f08c379a00000000000000000000000000000000000000000000000000000000081526004016101fc90610668565b60405180910390fd5b600160003373ffffffffffffffffffffffffffffffffffffffff1673ffffffffffffffffffffffffffffffffffffffff168152602001908152602001600020600082815260200190815260200160002060009054906101000a900460ff16156102a3576040517f08c379a000000000000000000000000000000000000000000000000000000000815260040161029a906106fa565b60405180910390fd5b60018060003373ffffffffffffffffffffffffffffffffffffffff1673ffffffffffffffffffffffffffffffffffffffff168152602001908152602001600020600083815260200190815260200160002060006101000a81548160ff0219169083151502179055506000803373ffffffffffffffffffffffffffffffffffffffff1673ffffffffffffffffffffffffffffffffffffffff168152602001908152602001600020819080600181540180825580915050600190039060005260206000200160009091909190915055803373ffffffffffffffffffffffffffffffffffffffff167f663078a0b72af52d61640c40b157655ccaa6311207d05e5bfd31c35e72d222eb426040516103b79190610733565b60405180910390a350565b600080fd5b600073ffffffffffffffffffffffffffffffffffffffff82169050919050565b60006103f2826103c7565b9050919050565b610402816103e7565b811461040d57600080fd5b50565b60008135905061041f816103f9565b92915050565b6000819050919050565b61043881610425565b811461044357600080fd5b50565b6000813590506104558161042f565b92915050565b60008060408385031215610472576104716103c2565b5b600061048085828601610410565b925050602061049185828601610446565b9150509250929050565b60008115159050919050565b6104b08161049b565b82525050565b60006020820190506104cb60008301846104a7565b92915050565b6000602082840312156104e7576104e66103c2565b5b60006104f584828501610410565b91505092915050565b600081519050919050565b600082825260208201905092915050565b6000819050602082019050919050565b61053381610425565b82525050565b6000610545838361052a565b60208301905092915050565b6000602082019050919050565b6000610569826104fe565b6105738185610509565b935061057e8361051a565b8060005b838110156105af5781516105968882610539565b97506105a183610551565b925050600181019050610582565b5085935050505092915050565b600060208201905081810360008301526105d6818461055e565b905092915050565b6000602082840312156105f4576105f36103c2565b5b600061060284828501610446565b91505092915050565b600082825260208201905092915050565b7f547261696e696e6752656769737472793a207a65726f20726f6f740000000000600082015250565b6000610652601b8361060b565b915061065d8261061c565b602082019050919050565b6000602082019050818103600083015261068181610645565b9050919050565b7f547261696e696e6752656769737472793a20616c726561647920636f6d6d697460008201527f7465640000000000000000000000000000000000000000000000000000000000602082015250565b60006106e460238361060b565b91506106ef82610688565b604082019050919050565b60006020820190508181036000830152610713816106d7565b9050919050565b6000819050919050565b61072d8161071a565b82525050565b60006020820190506107486000830184610724565b9291505056fea2646970667358221220a6ad04e9ecfb50d58418e92ba9fcf2fed4217796ec7a5d091b40d0457b2df67164736f6c63430008140033",
  "linkReferences": {},
  "deployedLinkReferences": {}
}